{
  "contractName": "IgiCertificate",
  "abi": [
    {
      "constant": false,
      "inputs": [],
      "name": "renounceOwnership",
      "outputs": [],
      "payable": false,
      "stateMutability": "nonpayable",
      "type": "function"
    },
    {
      "constant": true,
      "inputs": [],
      "name": "owner",
      "outputs": [
        {
          "name": "",
          "type": "address"
        }
      ],
      "payable": false,
      "stateMutability": "view",
      "type": "function"
    },
    {
      "constant": false,
      "inputs": [
        {
          "name": "_newOwner",
          "type": "address"
        }
      ],
      "name": "transferOwnership",
      "outputs": [],
      "payable": false,
      "stateMutability": "nonpayable",
      "type": "function"
    },
    {
      "inputs": [
        {
          "name": "igi",
          "type": "address"
        }
      ],
      "payable": false,
      "stateMutability": "nonpayable",
      "type": "constructor"
    },
    {
      "payable": false,
      "stateMutability": "nonpayable",
      "type": "fallback"
    },
    {
      "anonymous": false,
      "inputs": [
        {
          "indexed": false,
          "name": "certIdx",
          "type": "uint32"
        },
        {
          "indexed": false,
          "name": "certificataeID",
          "type": "uint256"
        }
      ],
      "name": "updateCertificateInfo",
      "type": "event"
    },
    {
      "anonymous": false,
      "inputs": [
        {
          "indexed": false,
          "name": "",
          "type": "address"
        }
      ],
      "name": "findingTrap",
      "type": "event"
    },
    {
      "anonymous": false,
      "inputs": [
        {
          "indexed": true,
          "name": "previousOwner",
          "type": "address"
        }
      ],
      "name": "OwnershipRenounced",
      "type": "event"
    },
    {
      "anonymous": false,
      "inputs": [
        {
          "indexed": true,
          "name": "previousOwner",
          "type": "address"
        },
        {
          "indexed": true,
          "name": "newOwner",
          "type": "address"
        }
      ],
      "name": "OwnershipTransferred",
      "type": "event"
    },
    {
      "constant": false,
      "inputs": [
        {
          "name": "hash",
          "type": "uint256"
        }
      ],
      "name": "AddCertificate",
      "outputs": [
        {
          "name": "",
          "type": "bool"
        }
      ],
      "payable": false,
      "stateMutability": "nonpayable",
      "type": "function"
    },
    {
      "constant": false,
      "inputs": [
        {
          "name": "myid",
          "type": "bytes32"
        },
        {
          "name": "result",
          "type": "string"
        }
      ],
      "name": "__callback",
      "outputs": [],
      "payable": false,
      "stateMutability": "nonpayable",
      "type": "function"
    },
    {
      "constant": false,
      "inputs": [
        {
          "name": "_queryId",
          "type": "bytes32"
        },
        {
          "name": "_result",
          "type": "string"
        },
        {
          "name": "_proof",
          "type": "bytes"
        }
      ],
      "name": "__callback",
      "outputs": [],
      "payable": false,
      "stateMutability": "nonpayable",
      "type": "function"
    },
    {
      "constant": true,
      "inputs": [
        {
          "name": "CertId",
          "type": "uint32"
        }
      ],
      "name": "GetCertificate",
      "outputs": [
        {
          "name": "",
          "type": "uint256"
        },
        {
          "name": "",
          "type": "uint256"
        },
        {
          "name": "",
          "type": "uint256"
        }
      ],
      "payable": false,
      "stateMutability": "view",
      "type": "function"
    },
    {
      "constant": false,
      "inputs": [],
      "name": "Mortal",
      "outputs": [],
      "payable": false,
      "stateMutability": "nonpayable",
      "type": "function"
    }
  ],
  "bytecode": "0x6080604052600180556000600860146101000a81548163ffffffff021916908363ffffffff16021790555034801561003657600080fd5b5060405160208061461983398101806040528101908080519060200190929190505050336000806101000a81548173ffffffffffffffffffffffffffffffffffffffff021916908373ffffffffffffffffffffffffffffffffffffffff16021790555033600760006101000a81548173ffffffffffffffffffffffffffffffffffffffff021916908373ffffffffffffffffffffffffffffffffffffffff16021790555080600860006101000a81548173ffffffffffffffffffffffffffffffffffffffff021916908373ffffffffffffffffffffffffffffffffffffffff160217905550506144ee8061012b6000396000f30060806040526004361061008e576000357c0100000000000000000000000000000000000000000000000000000000900463ffffffff1680631417c8451461015b57806327dc297e1461017257806338bbfa50146101e9578063715018a6146102a65780638da5cb5b146102bd5780639e6192dd14610314578063f2fde38b14610369578063f401c41f146103ac575b34801561009a57600080fd5b503373ffffffffffffffffffffffffffffffffffffffff16600860009054906101000a900473ffffffffffffffffffffffffffffffffffffffff1673ffffffffffffffffffffffffffffffffffffffff16141515610156577fb8e74fefaebd77facb566be094dbeafb22fdbb11d22168f252acf395c8077bd033604051808273ffffffffffffffffffffffffffffffffffffffff1673ffffffffffffffffffffffffffffffffffffffff16815260200191505060405180910390a15b600080fd5b34801561016757600080fd5b506101706103f1565b005b34801561017e57600080fd5b506101e76004803603810190808035600019169060200190929190803590602001908201803590602001908080601f016020809104026020016040519081016040528093929190818152602001838380828437820191505050505050919291929050505061054c565b005b3480156101f557600080fd5b506102a46004803603810190808035600019169060200190929190803590602001908201803590602001908080601f0160208091040260200160405190810160405280939291908181526020018383808284378201915050505050509192919290803590602001908201803590602001908080601f016020809104026020016040519081016040528093929190818152602001838380828437820191505050505050919291929050505061058f565b005b3480156102b257600080fd5b506102bb61070f565b005b3480156102c957600080fd5b506102d2610811565b604051808273ffffffffffffffffffffffffffffffffffffffff1673ffffffffffffffffffffffffffffffffffffffff16815260200191505060405180910390f35b34801561032057600080fd5b50610345600480360381019080803563ffffffff169060200190929190505050610836565b60405180848152602001838152602001828152602001935050505060405180910390f35b34801561037557600080fd5b506103aa600480360381019080803573ffffffffffffffffffffffffffffffffffffffff169060200190929190505050610926565b005b3480156103b857600080fd5b506103d76004803603810190808035906020019092919050505061098d565b604051808215151515815260200191505060405180910390f35b6000809054906101000a900473ffffffffffffffffffffffffffffffffffffffff1673ffffffffffffffffffffffffffffffffffffffff163373ffffffffffffffffffffffffffffffffffffffff1614151561044c57600080fd5b600760009054906101000a900473ffffffffffffffffffffffffffffffffffffffff1673ffffffffffffffffffffffffffffffffffffffff163373ffffffffffffffffffffffffffffffffffffffff16141515610511576040517f08c379a000000000000000000000000000000000000000000000000000000000815260040180806020018281038252601b8152602001807f6d6573736167652073656e646572206973206e6f74206f776e6572000000000081525060200191505060405180910390fd5b600760009054906101000a900473ffffffffffffffffffffffffffffffffffffffff1673ffffffffffffffffffffffffffffffffffffffff16ff5b61058b828260006040519080825280601f01601f1916602001820160405280156105855781602001602082028038833980820191505090505b5061058f565b5050565b60008061059a610b21565b73ffffffffffffffffffffffffffffffffffffffff163373ffffffffffffffffffffffffffffffffffffffff161415156105d357600080fd5b60006105e0868686610e83565b60ff161415156105ef57610708565b620f4240915081846040518082805190602001908083835b60208310151561062c5780518252602082019150602081019050602083039250610607565b6001836020036101000a03801982511681845116808217855250505050505090500191505060405180910390206001900481151561066657fe5b06905080600960008760001916600019168152602001908152602001600020600001819055507feb52a44f84aac593887ed67b152e732f396657f91ec1099b1ce8beb6d9038011600860149054906101000a900463ffffffff1660096000886000191660001916815260200190815260200160002060000154604051808363ffffffff1663ffffffff1681526020018281526020019250505060405180910390a15b5050505050565b6000809054906101000a900473ffffffffffffffffffffffffffffffffffffffff1673ffffffffffffffffffffffffffffffffffffffff163373ffffffffffffffffffffffffffffffffffffffff1614151561076a57600080fd5b6000809054906101000a900473ffffffffffffffffffffffffffffffffffffffff1673ffffffffffffffffffffffffffffffffffffffff167ff8df31144d9c2f0f6b59d69b8b98abd5459d07f2742c4df920b25aae33c6482060405160405180910390a260008060006101000a81548173ffffffffffffffffffffffffffffffffffffffff021916908373ffffffffffffffffffffffffffffffffffffffff160217905550565b6000809054906101000a900473ffffffffffffffffffffffffffffffffffffffff1681565b600080600060096000600a60008763ffffffff1663ffffffff16815260200190815260200160002054600019166000191681526020019081526020016000206000015460096000600a6000600860149054906101000a900463ffffffff1663ffffffff1663ffffffff16815260200190815260200160002054600019166000191681526020019081526020016000206001015460096000600a6000600860149054906101000a900463ffffffff1663ffffffff1663ffffffff1681526020019081526020016000205460001916600019168152602001908152602001600020600201549250925092509193909250565b6000809054906101000a900473ffffffffffffffffffffffffffffffffffffffff1673ffffffffffffffffffffffffffffffffffffffff163373ffffffffffffffffffffffffffffffffffffffff1614151561098157600080fd5b61098a816110ba565b50565b6000806000806000600180541415156109a557600080fd5b6002600181905550600860009054906101000a900473ffffffffffffffffffffffffffffffffffffffff168073ffffffffffffffffffffffffffffffffffffffff163373ffffffffffffffffffffffffffffffffffffffff16141515610a0a57600080fd5b610a3660307f0100000000000000000000000000000000000000000000000000000000000000026111b4565b600c94506000935062030d409250610a4f84868561153f565b91504260096000846000191660001916815260200190815260200160002060010181905550866009600084600019166000191681526020019081526020016000206002018190555081600a6000600860149054906101000a900463ffffffff1663ffffffff1663ffffffff16815260200190815260200160002081600019169055506008601481819054906101000a900463ffffffff168092919060010191906101000a81548163ffffffff021916908363ffffffff1602179055505060019550506001808190555050505050919050565b600080600260009054906101000a900473ffffffffffffffffffffffffffffffffffffffff1673ffffffffffffffffffffffffffffffffffffffff161480610b9357506000610b91600260009054906101000a900473ffffffffffffffffffffffffffffffffffffffff16611b05565b145b15610ba457610ba26000611b10565b505b600260009054906101000a900473ffffffffffffffffffffffffffffffffffffffff1673ffffffffffffffffffffffffffffffffffffffff166338cc48316040518163ffffffff167c0100000000000000000000000000000000000000000000000000000000028152600401602060405180830381600087803b158015610c2a57600080fd5b505af1158015610c3e573d6000803e3d6000fd5b505050506040513d6020811015610c5457600080fd5b810190808051906020019092919050505073ffffffffffffffffffffffffffffffffffffffff16600360009054906101000a900473ffffffffffffffffffffffffffffffffffffffff1673ffffffffffffffffffffffffffffffffffffffff16141515610dbd57600260009054906101000a900473ffffffffffffffffffffffffffffffffffffffff1673ffffffffffffffffffffffffffffffffffffffff166338cc48316040518163ffffffff167c0100000000000000000000000000000000000000000000000000000000028152600401602060405180830381600087803b158015610d4157600080fd5b505af1158015610d55573d6000803e3d6000fd5b505050506040513d6020811015610d6b57600080fd5b8101908080519060200190929190505050600360006101000a81548173ffffffffffffffffffffffffffffffffffffffff021916908373ffffffffffffffffffffffffffffffffffffffff1602179055505b600360009054906101000a900473ffffffffffffffffffffffffffffffffffffffff1673ffffffffffffffffffffffffffffffffffffffff1663c281d19e6040518163ffffffff167c0100000000000000000000000000000000000000000000000000000000028152600401602060405180830381600087803b158015610e4357600080fd5b505af1158015610e57573d6000803e3d6000fd5b505050506040513d6020811015610e6d57600080fd5b8101908080519060200190929190505050905090565b6000807f4c00000000000000000000000000000000000000000000000000000000000000836000815181101515610eb657fe5b9060200101517f010000000000000000000000000000000000000000000000000000000000000090047f0100000000000000000000000000000000000000000000000000000000000000027effffffffffffffffffffffffffffffffffffffffffffffffffffffffffffff1916141580610fcb57507f5000000000000000000000000000000000000000000000000000000000000000836001815181101515610f5b57fe5b9060200101517f010000000000000000000000000000000000000000000000000000000000000090047f0100000000000000000000000000000000000000000000000000000000000000027effffffffffffffffffffffffffffffffffffffffffffffffffffffffffffff191614155b80611074575060017f01000000000000000000000000000000000000000000000000000000000000000283600281518110151561100457fe5b9060200101517f010000000000000000000000000000000000000000000000000000000000000090047f0100000000000000000000000000000000000000000000000000000000000000027effffffffffffffffffffffffffffffffffffffffffffffffffffffffffffff191614155b1561108257600191506110b2565b611095838686611090611b21565b611bc3565b90506000151581151514156110ad57600291506110b2565b600091505b509392505050565b600073ffffffffffffffffffffffffffffffffffffffff168173ffffffffffffffffffffffffffffffffffffffff16141515156110f657600080fd5b8073ffffffffffffffffffffffffffffffffffffffff166000809054906101000a900473ffffffffffffffffffffffffffffffffffffffff1673ffffffffffffffffffffffffffffffffffffffff167f8be0079c531659141344cd1fd0a4f28419497f9722a3daafe3b4186f6b6457e060405160405180910390a3806000806101000a81548173ffffffffffffffffffffffffffffffffffffffff021916908373ffffffffffffffffffffffffffffffffffffffff16021790555050565b6000600260009054906101000a900473ffffffffffffffffffffffffffffffffffffffff1673ffffffffffffffffffffffffffffffffffffffff16148061122557506000611223600260009054906101000a900473ffffffffffffffffffffffffffffffffffffffff16611b05565b145b15611236576112346000611b10565b505b600260009054906101000a900473ffffffffffffffffffffffffffffffffffffffff1673ffffffffffffffffffffffffffffffffffffffff166338cc48316040518163ffffffff167c0100000000000000000000000000000000000000000000000000000000028152600401602060405180830381600087803b1580156112bc57600080fd5b505af11580156112d0573d6000803e3d6000fd5b505050506040513d60208110156112e657600080fd5b810190808051906020019092919050505073ffffffffffffffffffffffffffffffffffffffff16600360009054906101000a900473ffffffffffffffffffffffffffffffffffffffff1673ffffffffffffffffffffffffffffffffffffffff1614151561144f57600260009054906101000a900473ffffffffffffffffffffffffffffffffffffffff1673ffffffffffffffffffffffffffffffffffffffff166338cc48316040518163ffffffff167c0100000000000000000000000000000000000000000000000000000000028152600401602060405180830381600087803b1580156113d357600080fd5b505af11580156113e7573d6000803e3d6000fd5b505050506040513d60208110156113fd57600080fd5b8101908080519060200190929190505050600360006101000a81548173ffffffffffffffffffffffffffffffffffffffff021916908373ffffffffffffffffffffffffffffffffffffffff1602179055505b600360009054906101000a900473ffffffffffffffffffffffffffffffffffffffff1673ffffffffffffffffffffffffffffffffffffffff1663688dcfd7826040518263ffffffff167c010000000000000000000000000000000000000000000000000000000002815260040180827effffffffffffffffffffffffffffffffffffffffffffffffffffffffffffff19167effffffffffffffffffffffffffffffffffffffffffffffffffffffffffffff19168152602001915050600060405180830381600087803b15801561152457600080fd5b505af1158015611538573d6000803e3d6000fd5b5050505050565b6000606080606060006060806115536143db565b6000606060008c118015611568575060208c11155b151561157357600080fd5b600a8d029c5060016040519080825280601f01601f1916602001820160405280156115ad5781602001602082028038833980820191505090505b5098508b7f0100000000000000000000000000000000000000000000000000000000000000028960008151811015156115e257fe5b9060200101907effffffffffffffffffffffffffffffffffffffffffffffffffffffffffffff1916908160001a90535060206040519080825280601f01601f1916602001820160405280156116465781602001602082028038833980820191505090505b50975060206040519080825280601f01601f19166020018201604052801561167d5781602001602082028038833980820191505090505b5096506116886123b3565b95506020885242411860014303401860208901526020875285602088015260206040519080825280601f01601f1916602001820160405280156116da5781602001602082028038833980820191505090505b5094508c602086015260086040519080825280601f01601f1916602001820160405280156117175781602001602082028038833980820191505090505b50935061172a8560186008876000612715565b506080604051908101604052808981526020018a815260200188815260200186815250925061178f6040805190810160405280600681526020017f72616e646f6d0000000000000000000000000000000000000000000000000000815250848d612775565b915060086040519080825280601f01601f1916602001820160405280156117c55781602001602082028038833980820191505090505b50905060208401517f0100000000000000000000000000000000000000000000000000000000000000810460278301537e01000000000000000000000000000000000000000000000000000000000000810460268301537d010000000000000000000000000000000000000000000000000000000000810460258301537c0100000000000000000000000000000000000000000000000000000000810460248301537b01000000000000000000000000000000000000000000000000000000810460238301537a010000000000000000000000000000000000000000000000000000810460228301537901000000000000000000000000000000000000000000000000008104602183015378010000000000000000000000000000000000000000000000008104602083015350611af2828285600160048110151561190657fe5b6020020151600287600060048110151561191c57fe5b60200201516040518082805190602001908083835b6020831015156119565780518252602082019150602081019050602083039250611931565b6001836020036101000a0380198251168184511680821785525050505050509050019150506020604051808303816000865af115801561199a573d6000803e3d6000fd5b5050506040513d60208110156119af57600080fd5b81019080805190602001909291905050508760026004811015156119cf57fe5b60200201516040518085805190602001908083835b602083101515611a0957805182526020820191506020810190506020830392506119e4565b6001836020036101000a03801982511681845116808217855250505050505090500184805190602001908083835b602083101515611a5c5780518252602082019150602081019050602083039250611a37565b6001836020036101000a038019825116818451168082178552505050505050905001836000191660001916815260200182805190602001908083835b602083101515611abd5780518252602082019150602081019050602083039250611a98565b6001836020036101000a0380198251168184511680821785525050505050509050019450505050506040518091039020612b21565b8199505050505050505050509392505050565b6000813b9050919050565b6000611b1a612b49565b9050919050565b606060048054600181600116156101000203166002900480601f016020809104026020016040519081016040528092919081815260200182805460018160011615610100020316600290048015611bb95780601f10611b8e57610100808354040283529160200191611bb9565b820191906000526020600020905b815481529060010190602001808311611b9c57829003601f168201915b5050505050905090565b6000806060806060806000806060602060028e6045815181101515611be457fe5b9060200101517f010000000000000000000000000000000000000000000000000000000000000090047f0100000000000000000000000000000000000000000000000000000000000000027f010000000000000000000000000000000000000000000000000000000000000090040160440101975060206040519080825280601f01601f191660200182016040528015611c8d5781602001602082028038833980820191505090505b509650611c9f8d8960208a6000612715565b5060028a8d6040518083805190602001908083835b602083101515611cd95780518252602082019150602081019050602083039250611cb4565b6001836020036101000a0380198251168184511680821785525050505050509050018260001916600019168152602001925050506020604051808303816000865af1158015611d2c573d6000803e3d6000fd5b5050506040513d6020811015611d4157600080fd5b8101908080519060200190929190505050604051808260001916600019168152602001915050604051809103902060001916876040518082805190602001908083835b602083101515611da95780518252602082019150602081019050602083039250611d84565b6001836020036101000a038019825116818451168082178552505050505050905001915050604051809103902060001916141515611dea57600098506123a3565b60028d600160498b0101815181101515611e0057fe5b9060200101517f010000000000000000000000000000000000000000000000000000000000000090047f0100000000000000000000000000000000000000000000000000000000000000027f01000000000000000000000000000000000000000000000000000000000000009004016040519080825280601f01601f191660200182016040528015611ea15781602001602082028038833980820191505090505b509550611eb68d60498a018851896000612715565b50611fe46002876040518082805190602001908083835b602083101515611ef25780518252602082019150602081019050602083039250611ecd565b6001836020036101000a0380198251168184511680821785525050505050509050019150506020604051808303816000865af1158015611f36573d6000803e3d6000fd5b5050506040513d6020811015611f4b57600080fd5b81019080805190602001909291905050508c8f600860208d0101815181101515611f7157fe5b9060200101517f010000000000000000000000000000000000000000000000000000000000000090047f0100000000000000000000000000000000000000000000000000000000000000027f01000000000000000000000000000000000000000000000000000000000000009004612fdf565b1515611ff357600098506123a3565b60296040519080825280601f01601f1916602001820160405280156120275781602001602082028038833980820191505090505b50945061203c8d60208a016029886000612715565b50604080519080825280601f01601f1916602001820160405280156120705781602001602082028038833980820191505090505b50935060418651602960208b0101010192506120948d604085036040876000612715565b506002846040518082805190602001908083835b6020831015156120cd57805182526020820191506020810190506020830392506120a8565b6001836020036101000a0380198251168184511680821785525050505050509050019150506020604051808303816000865af1158015612111573d6000803e3d6000fd5b5050506040513d602081101561212657600080fd5b8101908080519060200190929190505050915084826040518083805190602001908083835b602083101515612170578051825260208201915060208101905060208303925061214b565b6001836020036101000a038019825116818451168082178552505050505050905001826000191660001916815260200192505050604051809103902060001916600560008e60001916600019168152602001908152602001600020546000191614156121fa57600560008d6000191660001916815260200190815260200160002060009055612203565b600098506123a3565b60496040519080825280601f01601f1916602001820160405280156122375781602001602082028038833980820191505090505b5090506122498d896049846000612715565b506122f66002826040518082805190602001908083835b6020831015156122855780518252602082019150602081019050602083039250612260565b6001836020036101000a0380198251168184511680821785525050505050509050019150506020604051808303816000865af11580156122c9573d6000803e3d6000fd5b5050506040513d60208110156122de57600080fd5b810190808051906020019092919050505087866130f7565b151561230557600098506123a3565b6000151560066000846000191660001916815260200190815260200160002060009054906101000a900460ff1615151415612377576123448d84613424565b60066000846000191660001916815260200190815260200160002060006101000a81548160ff0219169083151502179055505b60066000836000191660001916815260200190815260200160002060009054906101000a900460ff1698505b5050505050505050949350505050565b600080600260009054906101000a900473ffffffffffffffffffffffffffffffffffffffff1673ffffffffffffffffffffffffffffffffffffffff16148061242557506000612423600260009054906101000a900473ffffffffffffffffffffffffffffffffffffffff16611b05565b145b15612436576124346000611b10565b505b600260009054906101000a900473ffffffffffffffffffffffffffffffffffffffff1673ffffffffffffffffffffffffffffffffffffffff166338cc48316040518163ffffffff167c0100000000000000000000000000000000000000000000000000000000028152600401602060405180830381600087803b1580156124bc57600080fd5b505af11580156124d0573d6000803e3d6000fd5b505050506040513d60208110156124e657600080fd5b810190808051906020019092919050505073ffffffffffffffffffffffffffffffffffffffff16600360009054906101000a900473ffffffffffffffffffffffffffffffffffffffff1673ffffffffffffffffffffffffffffffffffffffff1614151561264f57600260009054906101000a900473ffffffffffffffffffffffffffffffffffffffff1673ffffffffffffffffffffffffffffffffffffffff166338cc48316040518163ffffffff167c0100000000000000000000000000000000000000000000000000000000028152600401602060405180830381600087803b1580156125d357600080fd5b505af11580156125e7573d6000803e3d6000fd5b505050506040513d60208110156125fd57600080fd5b8101908080519060200190929190505050600360006101000a81548173ffffffffffffffffffffffffffffffffffffffff021916908373ffffffffffffffffffffffffffffffffffffffff1602179055505b600360009054906101000a900473ffffffffffffffffffffffffffffffffffffffff1673ffffffffffffffffffffffffffffffffffffffff1663abaa5f3e6040518163ffffffff167c0100000000000000000000000000000000000000000000000000000000028152600401602060405180830381600087803b1580156126d557600080fd5b505af11580156126e9573d6000803e3d6000fd5b505050506040513d60208110156126ff57600080fd5b8101908080519060200190929190505050905090565b6060600080600084870192508286511015151561273157600080fd5b8760200191508460200190505b868860200101821015612766578189015180828801525060208201915060208101905061273e565b85935050505095945050505050565b600060606000600260009054906101000a900473ffffffffffffffffffffffffffffffffffffffff1673ffffffffffffffffffffffffffffffffffffffff1614806127ea575060006127e8600260009054906101000a900473ffffffffffffffffffffffffffffffffffffffff16611b05565b145b156127fb576127f96000611b10565b505b600260009054906101000a900473ffffffffffffffffffffffffffffffffffffffff1673ffffffffffffffffffffffffffffffffffffffff166338cc48316040518163ffffffff167c0100000000000000000000000000000000000000000000000000000000028152600401602060405180830381600087803b15801561288157600080fd5b505af1158015612895573d6000803e3d6000fd5b505050506040513d60208110156128ab57600080fd5b810190808051906020019092919050505073ffffffffffffffffffffffffffffffffffffffff16600360009054906101000a900473ffffffffffffffffffffffffffffffffffffffff1673ffffffffffffffffffffffffffffffffffffffff16141515612a1457600260009054906101000a900473ffffffffffffffffffffffffffffffffffffffff1673ffffffffffffffffffffffffffffffffffffffff166338cc48316040518163ffffffff167c0100000000000000000000000000000000000000000000000000000000028152600401602060405180830381600087803b15801561299857600080fd5b505af11580156129ac573d6000803e3d6000fd5b505050506040513d60208110156129c257600080fd5b8101908080519060200190929190505050600360006101000a81548173ffffffffffffffffffffffffffffffffffffffff021916908373ffffffffffffffffffffffffffffffffffffffff1602179055505b6004604051908082528060200260200182016040528015612a4957816020015b6060815260200190600190039081612a345790505b509050836000600481101515612a5b57fe5b6020020151816000815181101515612a6f57fe5b90602001906020020181905250836001600481101515612a8b57fe5b6020020151816001815181101515612a9f57fe5b90602001906020020181905250836002600481101515612abb57fe5b6020020151816002815181101515612acf57fe5b90602001906020020181905250836003600481101515612aeb57fe5b6020020151816003815181101515612aff57fe5b90602001906020020181905250612b1785828561398a565b9150509392505050565b8060056000846000191660001916815260200190815260200160002081600019169055505050565b600080612b69731d3b2638a7cc9f2cb3d298a3da7a90b67e5506ed611b05565b1115612c0b57731d3b2638a7cc9f2cb3d298a3da7a90b67e5506ed600260006101000a81548173ffffffffffffffffffffffffffffffffffffffff021916908373ffffffffffffffffffffffffffffffffffffffff160217905550612c026040805190810160405280600b81526020017f6574685f6d61696e6e6574000000000000000000000000000000000000000000815250613f4c565b60019050612fdc565b6000612c2a73c03a2615d5efaf5f49f60b7bb6583eaec212fdf1611b05565b1115612ccc5773c03a2615d5efaf5f49f60b7bb6583eaec212fdf1600260006101000a81548173ffffffffffffffffffffffffffffffffffffffff021916908373ffffffffffffffffffffffffffffffffffffffff160217905550612cc36040805190810160405280600c81526020017f6574685f726f707374656e330000000000000000000000000000000000000000815250613f4c565b60019050612fdc565b6000612ceb73b7a07bcf2ba2f2703b24c0691b5278999c59ac7e611b05565b1115612d8d5773b7a07bcf2ba2f2703b24c0691b5278999c59ac7e600260006101000a81548173ffffffffffffffffffffffffffffffffffffffff021916908373ffffffffffffffffffffffffffffffffffffffff160217905550612d846040805190810160405280600981526020017f6574685f6b6f76616e0000000000000000000000000000000000000000000000815250613f4c565b60019050612fdc565b6000612dac73146500cfd35b22e4a392fe0adc06de1a1368ed48611b05565b1115612e4e5773146500cfd35b22e4a392fe0adc06de1a1368ed48600260006101000a81548173ffffffffffffffffffffffffffffffffffffffff021916908373ffffffffffffffffffffffffffffffffffffffff160217905550612e456040805190810160405280600b81526020017f6574685f72696e6b656279000000000000000000000000000000000000000000815250613f4c565b60019050612fdc565b6000612e6d736f485c8bf6fc43ea212e93bbf8ce046c7f1cb475611b05565b1115612ed157736f485c8bf6fc43ea212e93bbf8ce046c7f1cb475600260006101000a81548173ffffffffffffffffffffffffffffffffffffffff021916908373ffffffffffffffffffffffffffffffffffffffff16021790555060019050612fdc565b6000612ef07320e12a1f859b3feae5fb2a0a32c18f5a65555bbf611b05565b1115612f54577320e12a1f859b3feae5fb2a0a32c18f5a65555bbf600260006101000a81548173ffffffffffffffffffffffffffffffffffffffff021916908373ffffffffffffffffffffffffffffffffffffffff16021790555060019050612fdc565b6000612f737351efaf4c8b3c9afbd5ab9f4bbc82784ab6ef8faa611b05565b1115612fd7577351efaf4c8b3c9afbd5ab9f4bbc82784ab6ef8faa600260006101000a81548173ffffffffffffffffffffffffffffffffffffffff021916908373ffffffffffffffffffffffffffffffffffffffff16021790555060019050612fdc565b600090505b90565b600080600060019150838551141515612ff757600080fd5b600090505b838110156130eb57848181518110151561301257fe5b9060200101517f010000000000000000000000000000000000000000000000000000000000000090047f0100000000000000000000000000000000000000000000000000000000000000027effffffffffffffffffffffffffffffffffffffffffffffffffffffffffffff1916868260208110151561308d57fe5b1a7f0100000000000000000000000000000000000000000000000000000000000000027effffffffffffffffffffffffffffffffffffffffffffffffffffffffffffff19161415156130de57600091505b8080600101915050612ffc565b81925050509392505050565b600080600080600060606000606060206040519080825280601f01601f1916602001820160405280156131395781602001602082028038833980820191505090505b50925060208a600381518110151561314d57fe5b9060200101517f010000000000000000000000000000000000000000000000000000000000000090047f0100000000000000000000000000000000000000000000000000000000000000027f010000000000000000000000000000000000000000000000000000000000000090040360040191506131d08a836020866000612715565b925060206040519080825280601f01601f1916602001820160405280156132065781602001602082028038833980820191505090505b5090506022820191506132a18a60208c6001860381518110151561322657fe5b9060200101517f010000000000000000000000000000000000000000000000000000000000000090047f0100000000000000000000000000000000000000000000000000000000000000027f010000000000000000000000000000000000000000000000000000000000000090040384016020846000612715565b905060208301519450602081015193506132be8b601b8787613f66565b80975081985050508573ffffffffffffffffffffffffffffffffffffffff16896040518082805190602001908083835b60208310151561331357805182526020820191506020810190506020830392506132ee565b6001836020036101000a03801982511681845116808217855250505050505090500191505060405180910390206001900473ffffffffffffffffffffffffffffffffffffffff1614156133695760019750613416565b6133768b601c8787613f66565b80975081985050508573ffffffffffffffffffffffffffffffffffffffff16896040518082805190602001908083835b6020831015156133cb57805182526020820191506020810190506020830392506133a6565b6001836020036101000a03801982511681845116808217855250505050505090500191505060405180910390206001900473ffffffffffffffffffffffffffffffffffffffff161497505b505050505050509392505050565b600080606080606080606080606060028b60018c0181518110151561344557fe5b9060200101517f010000000000000000000000000000000000000000000000000000000000000090047f0100000000000000000000000000000000000000000000000000000000000000027f01000000000000000000000000000000000000000000000000000000000000009004016040519080825280601f01601f1916602001820160405280156134e65781602001602082028038833980820191505090505b5096506134f88b8b89518a6000612715565b50604080519080825280601f01601f19166020018201604052801561352c5781602001602082028038833980820191505090505b50955061353f8b60046040896000612715565b5060626040519080825280601f01601f1916602001820160405280156135745781602001602082028038833980820191505090505b50945060017f0100000000000000000000000000000000000000000000000000000000000000028560008151811015156135aa57fe5b9060200101907effffffffffffffffffffffffffffffffffffffffffffffffffffffffffffff1916908160001a9053506135ec8b60418c036041886001612715565b506040805190810160405280602081526020017ffd94fa71bc0ba10d39d464d0d8f465efeef0a2764e3887fcc9df41ded20f505c81525093506136358460006020886042612715565b506136e26002866040518082805190602001908083835b602083101515613671578051825260208201915060208101905060208303925061364c565b6001836020036101000a0380198251168184511680821785525050505050509050019150506020604051808303816000865af11580156136b5573d6000803e3d6000fd5b5050506040513d60208110156136ca57600080fd5b810190808051906020019092919050505088886130f7565b97506000151588151514156136fa576000985061397c565b606060405190810160405280604081526020017f7fb956469c5c9b89840d55b43537e66a98dd4811ea0a27224272c2e5622911e881526020017f537a2f8e86a46baec82864e98dd01e9ccc2f8bc5dfc9cbe5a91a290498dd96e4815250925060426040519080825280601f01601f19166020018201604052801561378d5781602001602082028038833980820191505090505b50915060fe7f0100000000000000000000000000000000000000000000000000000000000000028260008151811015156137c357fe5b9060200101907effffffffffffffffffffffffffffffffffffffffffffffffffffffffffffff1916908160001a9053506138038b60036041856001612715565b5060028b604581518110151561381557fe5b9060200101517f010000000000000000000000000000000000000000000000000000000000000090047f0100000000000000000000000000000000000000000000000000000000000000027f01000000000000000000000000000000000000000000000000000000000000009004016040519080825280601f01601f1916602001820160405280156138b65781602001602082028038833980820191505090505b5090506138c98b60448351846000612715565b506139766002836040518082805190602001908083835b60208310151561390557805182526020820191506020810190506020830392506138e0565b6001836020036101000a0380198251168184511680821785525050505050509050019150506020604051808303816000865af1158015613949573d6000803e3d6000fd5b5050506040513d602081101561395e57600080fd5b810190808051906020019092919050505082856130f7565b97508798505b505050505050505092915050565b60008060606000600260009054906101000a900473ffffffffffffffffffffffffffffffffffffffff1673ffffffffffffffffffffffffffffffffffffffff161480613a00575060006139fe600260009054906101000a900473ffffffffffffffffffffffffffffffffffffffff16611b05565b145b15613a1157613a0f6000611b10565b505b600260009054906101000a900473ffffffffffffffffffffffffffffffffffffffff1673ffffffffffffffffffffffffffffffffffffffff166338cc48316040518163ffffffff167c0100000000000000000000000000000000000000000000000000000000028152600401602060405180830381600087803b158015613a9757600080fd5b505af1158015613aab573d6000803e3d6000fd5b505050506040513d6020811015613ac157600080fd5b810190808051906020019092919050505073ffffffffffffffffffffffffffffffffffffffff16600360009054906101000a900473ffffffffffffffffffffffffffffffffffffffff1673ffffffffffffffffffffffffffffffffffffffff16141515613c2a57600260009054906101000a900473ffffffffffffffffffffffffffffffffffffffff1673ffffffffffffffffffffffffffffffffffffffff166338cc48316040518163ffffffff167c0100000000000000000000000000000000000000000000000000000000028152600401602060405180830381600087803b158015613bae57600080fd5b505af1158015613bc2573d6000803e3d6000fd5b505050506040513d6020811015613bd857600080fd5b8101908080519060200190929190505050600360006101000a81548173ffffffffffffffffffffffffffffffffffffffff021916908373ffffffffffffffffffffffffffffffffffffffff1602179055505b600360009054906101000a900473ffffffffffffffffffffffffffffffffffffffff1673ffffffffffffffffffffffffffffffffffffffff16632ef3accc87866040518363ffffffff167c01000000000000000000000000000000000000000000000000000000000281526004018080602001838152602001828103825284818151815260200191508051906020019080838360005b83811015613cdb578082015181840152602081019050613cc0565b50505050905090810190601f168015613d085780820380516001836020036101000a031916815260200191505b509350505050602060405180830381600087803b158015613d2857600080fd5b505af1158015613d3c573d6000803e3d6000fd5b505050506040513d6020811015613d5257600080fd5b81019080805190602001909291905050509150833a02670de0b6b3a764000001821115613d855760006001029250613f43565b613d8e85613faa565b9050600360009054906101000a900473ffffffffffffffffffffffffffffffffffffffff1673ffffffffffffffffffffffffffffffffffffffff1663c55c1cb68360008985896040518663ffffffff167c0100000000000000000000000000000000000000000000000000000000028152600401808581526020018060200180602001848152602001838103835286818151815260200191508051906020019080838360005b83811015613e4f578082015181840152602081019050613e34565b50505050905090810190601f168015613e7c5780820380516001836020036101000a031916815260200191505b50838103825285818151815260200191508051906020019080838360005b83811015613eb5578082015181840152602081019050613e9a565b50505050905090810190601f168015613ee25780820380516001836020036101000a031916815260200191505b5096505050505050506020604051808303818588803b158015613f0457600080fd5b505af1158015613f18573d6000803e3d6000fd5b50505050506040513d6020811015613f2f57600080fd5b810190808051906020019092919050505092505b50509392505050565b8060049080519060200190613f62929190614403565b5050565b60008060008060405188815287602082015286604082015285606082015260208160808360006001610bb8f192508051915050818193509350505094509492505050565b6060613fb4614483565b6000613fbe61402f565b613fca8261040061403b565b613fd38261408b565b600090505b83518110156140185761400b8482815181101515613ff257fe5b906020019060200201518361409990919063ffffffff16565b8080600101915050613fd8565b614021826140be565b816000015192505050919050565b60405180590338823950565b6000819050600060208281151561404e57fe5b0614151561406b5760208181151561406257fe5b06602003810190505b808360200181815250506040518084526000815281810160405250505050565b6140968160046140cc565b50565b6140a682600283516140f0565b6140b9818361424990919063ffffffff16565b505050565b6140c98160076140cc565b50565b6140ec601f60058360ff169060020a0217836142f590919063ffffffff16565b5050565b6017811115156141215761411c8160058460ff169060020a0260ff1617846142f590919063ffffffff16565b614244565b60ff811115156141675761414b601860058460ff169060020a0217846142f590919063ffffffff16565b614161816001856143359092919063ffffffff16565b50614243565b61ffff811115156141ae57614192601960058460ff169060020a0217846142f590919063ffffffff16565b6141a8816002856143359092919063ffffffff16565b50614242565b63ffffffff811115156141f7576141db601a60058460ff169060020a0217846142f590919063ffffffff16565b6141f1816004856143359092919063ffffffff16565b50614241565b67ffffffffffffffff8111151561424057614228601b60058460ff169060020a0217846142f590919063ffffffff16565b61423e816008856143359092919063ffffffff16565b505b5b5b5b5b505050565b614251614483565b60008060008086602001518760000151518751011115614287576142868760026142808a602001518a5161439c565b026143b8565b5b8551915086518051602081830101955087518101825260208801945050505b6020821015156142cb57825184526020840193506020830192506020820391506142a6565b6001826020036101000a039050801983511681855116818117865250508694505050505092915050565b8160200151600183600001515101111561431b5761431a8260028460200151026143b8565b5b815180516020818301018381536001820183525050505050565b61433d614483565b600084602001518560000151518401111561436d5761436c85600261436688602001518761439c565b026143b8565b5b6001836101000a0390508451805184818301018684198251161781528582018352505050849150509392505050565b6000818311156143ae578290506143b2565b8190505b92915050565b6060826000015190506143cb838361403b565b6143d58382614249565b50505050565b6080604051908101604052806004905b60608152602001906001900390816143eb5790505090565b828054600181600116156101000203166002900490600052602060002090601f016020900481019282601f1061444457805160ff1916838001178555614472565b82800160010185558215614472579182015b82811115614471578251825591602001919060010190614456565b5b50905061447f919061449d565b5090565b604080519081016040528060608152602001600081525090565b6144bf91905b808211156144bb5760008160009055506001016144a3565b5090565b905600a165627a7a7230582058041f32189cf30e8e9120cc0a8cf88a2a652ba95bd5c40aef4ca5c865ffe0e40029",
  "source": "pragma solidity ^0.4.23;\n\nimport \"../node_modules/openzeppelin-solidity/contracts/ReentrancyGuard.sol\";\nimport \"../node_modules/openzeppelin-solidity/contracts/ownership/Ownable.sol\";\nimport \"./usingOraclize.sol\";\n\ncontract IgiCertificate is Ownable, ReentrancyGuard, usingOraclize {\n\n  struct certificate {\n    uint256 CertificateID;\n    uint256 date;    //Its a timestamp would be initialized using the variable \"now\" while during traction, and would be parsed to humman readable format in Java script\n    uint256 hash;  // Stores in ipfs, for tracking the details of the Diamond\n  }\n  //hash contains some details attribuites about the diomand, including the geo location where it was certified\n\n\n  address private ContractAddress; //Can be used for emergency stop and for self mortal, Owner is Vlinder\n  address private IgiAddress; // Only Igi could use this contract to add certificate, User is IGI\n  uint32 certIdx = 0;\n  //mapping (address => mapping (uint => address) ) ownerVsUser; //under owner How many users are transacting, owner is usually ContractAddress.\n  //mapping (address => mapping (uint256 => certificate)) CertificateInfo; // only registered address could bale to access the certificate informations\n  mapping (bytes32 => certificate) CertificateInfo;  //Ths is the mapping between the QueryID and the CErtificate details\n  mapping (uint32 => bytes32) CertificateIdx;\n\n  constructor(address igi) public {  // Igi address holds the administrator rights of this Contract\n    ContractAddress = msg.sender;  //each time while the certificate is added the transactor address id added in the mapping\n    IgiAddress = igi;\n  }\n\n  modifier AllowOnlyIgi (address _address) { require (msg.sender == _address); _;}\n\n  event updateCertificateInfo(uint32 certIdx, uint256 certificataeID);\n  event findingTrap(address);\n\n  function AddCertificate(uint256 hash) external\n    nonReentrant // modifier from ReentracyGuard OpenZeppelin Library protects against being called again\n    AllowOnlyIgi(IgiAddress) returns (bool){ //External function would reduce the amount of gas consumption compared to public function\n      //generate random number as a CertificateID, it would better If the TRNG is implemented.\n      //TODO : Implement 1) get a random number from the library;\n      oraclize_setProof(proofType_Ledger); // sets the Ledger authenticity proof\n      uint N = 12; // number of random bytes we want the datasource to return\n      uint delay = 0; // number of seconds to wait before the execution takes place\n      uint callbackGas = 200000; // amount of gas we want Oraclize to set for the callback function\n      bytes32 queryId = oraclize_newRandomDSQuery(delay, N, callbackGas); // this function internally generates the correct oraclize_query and returns its queryId\n      CertificateInfo[queryId].date = now;\n      CertificateInfo[queryId].hash = hash;\n      CertificateIdx[certIdx] = queryId;\n      certIdx++;\n      return true; //this need to be changed if the random number generation fails\n  }\n  function __callback(bytes32 _queryId, string _result, bytes _proof) public\n  {\n      // if we reach this point successfully, it means that the attached authenticity proof has passed!\n      require (msg.sender == oraclize_cbAddress());\n\n      if (oraclize_randomDS_proofVerify__returnCode(_queryId, _result, _proof) != 0) {\n          // the proof verification has failed, do we need to take any action here? (depends on the use case)\n      } else {\n          // the proof verification has passed\n\n          // for simplicity of use, let's also convert the random bytes to uint if we need\n          uint maxRange = 1000000; // this is the highest uint we want to get. It should never be greater than 2^(8*N), where N is the number of random bytes we had asked the datasource to return\n          uint randomNumber = uint(sha3(_result)) % maxRange; // this is an efficient way to get the uint out in the [0, maxRange] range\n\n          CertificateInfo[_queryId].CertificateID = randomNumber; // this is the resulting random number (uint)\n          emit updateCertificateInfo(certIdx,CertificateInfo[_queryId].CertificateID);\n\n      }\n    }\n\n  function GetCertificate(uint32 CertId) view external returns(uint256, uint256 , uint256){  //External function would reduce the amount of gas consumption compared to public function\n    return (CertificateInfo[CertificateIdx[CertId]].CertificateID, CertificateInfo[CertificateIdx[certIdx]].date,  CertificateInfo[CertificateIdx[certIdx]].hash);\n  }\n\n  // Fallback function - Called if other functions don't match call or\n  // sent ether without data\n  // Typically, called when invalid data is sent\n  // Added so ether sent to this contract is reverted if the contract fails\n  // otherwise, the sender's money is transferred to contract\n  function () public {\n    if(IgiAddress != msg.sender)\n      emit findingTrap(msg.sender);  //Just notify the front ens about the trap addres\n\n    revert();\n  }\n  function Mortal () onlyOwner public {\n    require(msg.sender == ContractAddress,\"message sender is not owner\");\n    selfdestruct(ContractAddress);\n  }\n\n}\n",
  "sourcePath": "/root/Vlinder/igi/contracts/igi.sol",
  "compiler": {
    "name": "solc",
    "version": "0.4.24+commit.e67f0147.Emscripten.clang"
  },
  "schemaVersion": "2.0.0",
  "updatedAt": "2018-10-08T17:36:35.583Z"
}